:020000040800F2
:10000000500600200101000867330008212600087F
:10001000653300082D0900082D3D00080000000090
:10002000000000000000000000000000A5370008EC
:100030002F0900080000000029350008A737000834
:100040001B0100081B0100081B0100081B01000820
:100050001B0100081B0100081B0100081B01000810
:100060001B0100081B0100081B0100081B01000800
:100070001B0100081B0100081B0100081B010008F0
:100080001B0100081B0100081B0100081B010008E0
:100090001B0100081B0100081B0100081B010008D0
:1000A0001B0100081B0100081B0100081B010008C0
:1000B00035380008413800084D380008312600085E
:1000C000252600081B0100081B0100081B01000871
:1000D0001B0100081B0100081B010008213D00084E
:1000E0001B0100081B0100081B010008DFF80CD0F1
:1000F00000F00AFC00480047E941000850060020D3
:100100000648804706480047FEE7FEE7FEE7FEE7B1
:10011000FEE7FEE7FEE7FEE7FEE7FEE7ED37000855
:10012000ED000008202A04DB203A21FA02F0002129
:10013000704721FA02F3D040C2F1200291400843F7
:1001400019467047D2B201E000F8012B491EFBD2DC
:1001500070470022F6E710B513460A4604461946D2
:10016000FFF7F0FF204610BDF0B480EA0102D40F83
:100170004200B2EB410F02D20246084611464A0045
:1001800042D0C30DDDB2C1F3C752AD1A202D35DA0E
:10019000C1F3160141F4000204B15242C5F1200638
:1001A00002FA06F12A411044B3EBD05F23D0C4B168
:1001B000012DA0EBC35009DCF0BC4FF0004202EA75
:1001C000C352DBB200F5000000F0C2BA400000F1FB
:1001D000807000EBC350A0F1807040EAD1704900FC
:1001E00009E0490841EAC071A0EBC35000F50000E6
:1001F000400800EBC350F0BC00F0A1BA61420122FC
:1002000002EB4101001BF6E7F0BC704781F00041B2
:10021000AAE780F00040A7E780EA010210B502F0EB
:100220000043400022D04A001FD0010E01EB1261B2
:10023000C0F35600C2F3560240F4000042F400023C
:10024000A0FB022000047F39140400D0401C50EAB7
:10025000124001D44000491EC2B20C0604EBD0107B
:10026000401C4008802A02D003E0002010BD20F08E
:100270000100002900DA0020184310BD30B480EAE4
:10028000010202F0004530F0004221F0004013D09E
:1002900090B1C30DD40DC2F31601C0F31600E41AD9
:1002A00041F4000140F400027D34914201D3641C0A
:1002B00000E04900002C02DA30BC002070474FF407
:1002C00000000023914201D3891A034340084FEAFA
:1002D0004101F7D151B1914202D14FF0004105E007
:1002E00002D24FF0010101E06FF0010103EBC450B5
:1002F000284430BC00F023BA420005D0C0F3C752F6
:100300005242914201DC0020704700EBC15070471F
:100310002DE9FE4F804681EA0300C00F0C46009095
:1003200021F0004123F00045B8EB0200A94105D2BD
:100330004046214690461C460B46024623F00040AC
:10034000104347D0270DC7F30A00C3F30A510290A8
:10035000401A019040286BDAC3F3130040F4801B6D
:100360000098924620B10023D2EB030A63EB0B0BFB
:1003700001985946C0F14002504600F0BFF90646C8
:100380000D4650465946019A00F0C7F910EB080097
:100390006141002487EA115284EAE7731A4340D08E
:1003A000009A62B3019A012A4FEA075215DC001B3A
:1003B00061EB02014FF0004202EA0752CDE9004230
:1003C000001C41F5801132462B4600F0FEF903B0C7
:1003D000BDE8F08F40462146F9E7001B61EB0201C2
:1003E000001C41F5801300185B412018A2F500178E
:1003F00047EB030140EAD570B6196D4111E06D0875
:100400004FEA360645EAC0754FEA0752001B61EB1A
:100410000201001C41F5801149084FEA3000001923
:10042000514132462B4603B0BDE8F04F00F0BEB953
:100430000098012240000023D0EB020263EBE0733E
:10044000009821464FEAE074B8EB000061EB04012C
:10045000E9E783F000435BE781F0004158E72DE9CD
:10046000FE4F81EA030404F0004421F000410094AF
:100470004FF0000B23F0004350EA01045ED052EA33
:1004800003045BD0C3F30A54C1F30A552C44A4F20D
:10049000F3340194A0FB0254C1F3130141F4801121
:1004A000C3F3130343F4801301FB024400FB034E28
:1004B000840A970A44EA815447EA8357A4FB0768F1
:1004C00002958D0A05FB07854FEA932C04FB0C541B
:1004D0002705029D4FEA065847EA1637B5EB08058F
:1004E0006EEB070C870E920E47EA811742EA8312E1
:1004F000A7FB0201B6EB0B0164EB00042B0D43EAF2
:100500000C335E1844EB1C50DA465146E7FB0201FF
:10051000C5F313044FEA0B3343EA14534FEA043292
:10052000019C43EA0603A4F10C040294009CCDE96B
:1005300000B400F04AF903B0BDE8F08F0020014696
:10054000F9E72DE9F04D81EA030404F0004B21F0B6
:10055000004514464FF0000A23F0004150EA05021E
:1005600020D054EA01021DD0C5F30A570246C5F354
:100570001303C1F31300C1F30A5640F4801543F48A
:100580008013A7EB0608101BD64608F2FD3873EB64
:10059000050002D308F1010801E092185B41B8F1AF
:1005A000000F03DA00200146BDE8F08D00204FF473
:1005B0008011064684460EE0171B73EB050705D332
:1005C000121B63EB050306434CEA010C49084FEA92
:1005D000300092185B4150EA0107EDD152EA030066
:1005E00012D082EA040083EA0501084305D0101BFB
:1005F000AB4106D20122002306E000224FF0004367
:1006000002E06FF0010253101AEB06004CEB0851A8
:1006100010EB0A0041EB0B01BDE8F04D00F0C6B84D
:1006200070B521F0004303430CD0C1F30A550024F8
:10063000D5EB040564EB0403D617AD1AB34102DB16
:100640000020014670BD201841EB025170BDC10F62
:1006500080EAE0700844CA079623002100F078B8C9
:1006600020F00040C10DC0F3160040F400007F29C7
:1006700001DA00207047962903DCC1F19601C840D9
:10068000704796398840704700F0004230F00040D3
:100690000AD0C10D01F56071C0F3160042EA0151A4
:1006A000C20840071143704700200146704701F01F
:1006B000004330B421F0004150EA010206D00A0D97
:1006C000A2F56072C1F31301002A02DC30BC0020E5
:1006D0007047440F44EAC104C100E01830BC00EB8D
:1006E000C25000F02CB80000002801DBC0F100402F
:1006F000002901DBC1F1004188427047202A04DB58
:10070000203A00FA02F1002070479140C2F1200324
:1007100020FA03F3194390407047202A06DBCB17D9
:10072000203A41FA02F043EAE07306E041FA02F3AC
:10073000D040C2F120029140084319467047002979
:10074000A8BF7047401C490008BF20F00100704757
:1007500010B4B0FA80FC00FA0CF050EA010404BFB7
:1007600010BC704749B1CCF1200421FA04F411FA0D
:100770000CF118BF012121430843A3EB0C01CB1D51
:100780004FEA00614FEA102042BF002010BC7047C2
:1007900000EBC35010440029A4BF10BC7047401C9C
:1007A000490008BF20F0010010BC704710B5141EAE
:1007B00073F1000408DA401C41F1000192185B411A
:1007C0001A4301D120F0010010BD2DE9F04D9246F1
:1007D0009B4611B1B1FA81F202E0B0FA80F2203208
:1007E0009046FFF78BFF04460F4640EA0A0041EAB5
:1007F0000B0153465A46084313D0114653EA0100F1
:1008000019D0C8F140025046FFF78CFC05460E4651
:10081000504659464246FFF771FF084305D0012074
:1008200004E020463946BDE8F08D0020054346EA45
:10083000E0762C4337430A986305E40AA0EB0800EE
:100840000022FD0A44EA47540A3002D5002001463E
:10085000E9E7010510196941DDE908450019694119
:10086000BDE8F04DA2E72DE9F04D00231A461B1A12
:100870008A4103DB00200146BDE8F08DC1F30A5236
:10088000C1F3130141F480154FF0000BD10702D1E1
:1008900000186D41521E0027044640F2FF113846F1
:1008A00001EB620A3E468046024600204FF480116A
:1008B000FFF738FCC2197141BB1846EB0100B4EBDD
:1008C000030C75EB000C04D3E41A65EB0005174626
:1008D0000E46241908F101006D4180463428E3DDFD
:1008E000F91946EB0600091BA84103D24FF0FF326D
:1008F000134601E0002213461BEB070046EB0A51AA
:10090000BDE8F04DFFF752BF064C074D06E0E0682A
:1009100040F0010394E8070098471034AC42F6D346
:10092000FFF7E8FB2044000840440008FEE770475A
:1009300010B590F821100024022903D0042181630E
:1009400001243DE001680A6822F00E020A60016895
:100950000A6822F001020A601A4A0168914201D134
:10096000012121E0174A1432914201D110211BE0EC
:10097000144A2832914201D1891515E0114A3C32BE
:10098000914201D189140FE00E4A5032914202D1B6
:100990004FF4803108E00B4A6432914202D14FF4A7
:1009A000801101E04FF08071064A083A5160012140
:1009B00080F82110002180F82010416B01B1884798
:1009C000204610BD080002402DE9F84FDFF890A145
:1009D00000220AF1040B144601274FF00F090BF116
:1009E000040E00BF0B6807FA04F52B40AB4274D12C
:1009F000DFF870C14E68A6EB0C0866452BD00DDC05
:100A0000032E34D005DC36B3012E19D0022E2FD19F
:100A10001BE0112E16D0122E2AD119E0B8F5881F2E
:100A200019D006DCB8F5803F15D0B8F5801F1FD16E
:100A300011E0B8F5001F0ED0B8F5041F18D10AE078
:100A4000CA6815E0CA68121D12E0CA6808320FE0D1
:100A5000CA680C320CE08A682AB1012A4FF00802F9
:100A600003D0456104E0042202E0056100E00022B9
:100A7000FF2B01D8064601E000F104064FEA840589
:100A800001D9A5F12005D6F800C009FA05F82CEA2D
:100A9000080C02FA05F54CEA050CC6F800C04D68D2
:100AA000ED0057D5304DAE6946F00106AE61AD6937
:100AB00024F0030605F0010500952C4D06EB050C0E
:100AC000DCF80850A6074FEA167809FA08F6B5438D
:100AD000274EB04202D1002610E03BE0254EB04246
:100AE00001D101260AE0244EB04201D1022605E0E0
:100AF000224EB04201D1032600E0042606FA08F691
:100B00002E43CCF808604D68DAF80060ED035546D6
:100B100001D51E4300E09E432E604D68DBF8006067
:100B2000AD035D4601D51E4300E09E432E604D6837
:100B3000DEF80060ED02754601D51E4300E09E43DD
:100B40002E604D68AD020E4D2E6801D51E4300E0AB
:100B50009E432E60641C102CFFF444AFBDE8F88F58
:100B6000000401400000111000100240000001408C
:100B700000080140000C0140001001400014014039
:100B80000C0401400AB1016170470904FBE7000051
:100B90000148806870470000880000207047704757
:100BA00070B5044600684569466830490D420DD06D
:100BB000F1050BD5216C41F0010121646FF48071C6
:100BC00041612068016841F40041016015F4813FF2
:100BD00009D0F00507D5206C40F0020020642168A0
:100BE0006FF40070486115F4823F28D0F00526D5D7
:100BF00094F83E30628D94F83D00216B202B08D193
:100C00003AB921280ED029280CD0282801D1212931
:100C100008D0206C40F00400206494F83E001028B6
:100C200004D008E0204602F0C9F808E02068016816
:100C300041F40071016021686FF48060486115F42F
:100C4000843F09D0F00507D5206C40F008002064EF
:100C500021686FF400604861206C002804D02046B1
:100C6000BDE8704001F012BD70BD00000001010040
:100C70002DE9F05F02680446D2F81880556956687D
:100C800090F83E007449DFF8D0A1DFF8CCB1DFF86E
:100C9000CC918F1C0AF17E0A0BF13E0B102812D06A
:100CA000402810D00D425BD0B00559D5936920463D
:100CB0000021DB435B0700D501219269D243120674
:100CC00048D5828947E015F0011F05D0B00503D54E
:100CD000204602F046F810E05F48801D054205D02E
:100CE000B00503D5606CC0B2106106E00D4204D0BF
:100CF000B00502D5204601F0A7FF18EA090F14D06D
:100D000015EA0A0F08D0700506D53D4206D12046E7
:100D1000BDE8F05F01F014BF3D421FD0B0051DD506
:100D20002046BDE8F05F01F0CBBE15EA0B0F08D0FE
:100D3000700506D53D4206D12046BDE8F05F01F0C2
:100D4000AFBD3D420AD0B00508D52046BDE8F05FF2
:100D500001F042BD028B92B2FFF721FFBDE8F09F88
:100D60003D480E30054206D0B00504D52046BDE80A
:100D7000F05F02F065B818EA090F4FF0280134D08F
:100D800015EA0A0F23D0700521D53D4221D194F8F0
:100D90003D302046628D002AE0D0426A541C4462F5
:100DA000046812782261428D521E4285428D002ACB
:100DB000D4D1292BD2D10268536823F480635360C5
:100DC0002122026380F83D1000F08FFBC6E73D4210
:100DD000C4D0B005C2D5608D0028BFD0606A411C68
:100DE000616221680078086131E015EA0B0F22D0BA
:100DF000700520D53D4220D194F83D302046648DC9
:100E0000002CABD01469426A551C45621470428DA7
:100E1000521E4285428D002AA0D12A2B9ED1026803
:100E2000536823F4806353602222026380F83D10EC
:100E300000F05AFB92E73D4290D0B0058ED5608D10
:100E400000288BD01169606A421C62620170608D5B
:100E5000401E608582E700000200010004001000CF
:100E60007047000070B504001BD094F83D000025C9
:100E700020B984F83C50204600F0EEFA242084F893
:100E80003D002068016821F00101016000F07AFC5A
:100E9000404A6168914201D83F4900E03F49884299
:100EA00001D2012070BD3E492368B0FBF1F15960C9
:100EB0006368934206D94FF4967359434FF47A739B
:100EC000B1FBF3F12368491C19626168914210D8A3
:100ED0004900401EB0FBF1F2521CC2F30B02042A7F
:100EE00001D2042022E0B0FBF1F0401CC0F30B0063
:100EF0001CE0A368CBB301EBC10202EB0116421E5A
:100F0000B2FBF6F2521C42F48042120536D06BB3AB
:100F100001EBC10202EB0111401EB0FBF1F0401CDD
:100F2000C0F30B0040F4804040F400402168C861E9
:100F3000D4E90701084321680860D4E90310084395
:100F400021688860D4E9050108432168C8602068E9
:100F5000016841F0010101602564202084F83D0012
:100F6000256384F83E50002070BD00E008E001EBEE
:100F70004106421EB2FBF6F2521CC6E70120D5E73D
:100F800001EB4101401EB0FBF1F0401CC0F30B002F
:100F9000CAE70000A086010080841E0000093D0011
:100FA00040420F002DE9FF4F81B099468B46044621
:100FB0004FF00108FFF7ECFD054694F83D002028AE
:100FC0007BD1192301224D492046009501F0CDFF28
:100FD000002872D194F83C0001286ED0012084F8DA
:100FE0003C0020680168C90703D1016841F0010194
:100FF00001602068016821F400610160242084F808
:101000003D00002626643E48E062202720680168F3
:1010100041F4807101604B4600224FF001112046DF
:10102000009501F0A2FF002858D121680BF0FE00C6
:101030000861FFF7ADFD2168054648694969C0F3BD
:10104000400094F83D20C1F380214FF0A00A12E047
:10105000B9F1000F04D0FFF79BFD411B494501D9B1
:1010600084F83DA0216848694969C0F3400094F8BC
:101070003D20C1F38021084301D1A02AE8D184F8A2
:101080003D7020684169C943890717D4016841F45C
:1010900000710160206841698069192301221749A4
:1010A0002046009501F061FFC0B984F83D7084F8D6
:1010B0003C60002005B0BDE8F08F1DE0016841F400
:1010C0000071016021686FF480604861192301227A
:1010D0000A492046009501F048FF08B10320E9E7DE
:1010E0004146039808F1010881428FD384F83D708E
:1010F00084F83C600120DDE70220DBE702001000FD
:101100000000FFFF70477047704700002DE9F84F5F
:101110001F4690468A460446DDF82890FFF738FDC2
:10112000054694F83D0020287ED1192301227849F4
:101130002046009501F019FF0028F5D194F83C00F5
:10114000012871D0012084F83C0020680168C9079B
:1011500003D1016841F0010101602068016821F4B8
:1011600000610160222084F83D00102084F83E00D8
:1011700000262664C4F8248067856648E062608D96
:1011800020852B464A465146204601F0E0FB28B117
:10119000206C84F83C60042850D073E0208D5E4FB2
:1011A00068B1012814D00228206801681ED041F4DB
:1011B0008061016020684169806900909AE0206840
:1011C000416981690091016841F40071016091E019
:1011D0002068016821F48061016072B6206841696D
:1011E00081690091016841F400710AE041F40061F5
:1011F000016072B62068416981690091016821F43B
:101200008061016062B675E0032850D801280CD0D7
:1012100002284B464FF0000239462046009512D076
:1012200001F0A3FE70BB13E070E02A464946204659
:1012300001F010FF28B1206C202823D00120BDE848
:10124000F88F20684BE001F090FED8B972B61BE031
:101250002068016821F48061016072B6206801692C
:10126000606A421C62620170208D401E2085608D84
:10127000401E60854B46002239462046009501F00D
:1012800074FE08B10320DAE72068016841F40071B8
:10129000016020680169606A421C62620170208DF1
:1012A000401E2085608D401E608562B6C9E72A46D3
:1012B0004946204601F0CEFE0028BCD120680169D5
:1012C000606A421C62620170208D401E2085608D24
:1012D000401E608520684169C94349070AD40169F5
:1012E000606A421C62620170208D401E2085608D04
:1012F000401E6085208D002886D1202084F83D0086
:1013000084F83E6084F83C60002098E7022096E76D
:10131000020010000000FFFF040001002DE9F84F5B
:101320001F4690468A460446DDF82890FFF730FCB9
:10133000064694F83D0020287ED119230122434916
:101340002046009601F011FE00287DD194F83C0063
:10135000012879D0012084F83C0020680168C90781
:1013600003D1016841F0010101602068016821F4A6
:1013700000610160212084F83D00102084F83E00C7
:1013800000252564C4F8248067853148E062608DBB
:10139000208533464A465146204601F047FB28B196
:1013A000206C84F83C5004284CD00DE02068416942
:1013B0008069009030E032464946204601F07BFECD
:1013C00028B1206C042838D00320BDE8F88F606A6B
:1013D000411C6162216800780861608D401E608553
:1013E000208D401E80B2208521684A69D243520771
:1013F0000BD450B1606A421C626200780861608D53
:10140000401E6085208D401E20853246494620467C
:1014100001F084FD0028D4D1208D0028CBD154F8D0
:101420003D0B016841F400710160202004F81E09A1
:10143000E57765770020C8E706E02068016841F499
:10144000007101600120C0E70220BEE70200100029
:101450000000FFFF7047704710B586B00021009173
:1014600001910291039100681B49884232D11B4CC3
:10147000A06940F00800A061A069694600F008007A
:1014800004904FF4407000901220019003200390CC
:101490001348FFF799FA1348416841F0E06141F0C1
:1014A00002014160E06940F40010E061E06900225F
:1014B00000F40010049011461F2000F07BF81F205C
:1014C00000F06CF800221146202000F073F8202074
:1014D00000F064F806B010BD005400400010024057
:1014E000000C0140000001407047704702488168CD
:1014F000027811448160704788000020074810B5C9
:10150000016841F010010160032000F073F8002031
:1015100000F006F800F024F8002010BD0020024082
:1015200070B50D4D04464FF47A712878B1FBF0F098
:101530000A490968B1FBF0F000F0FCFA48B9102C38
:1015400007D200222146501E00F034F800206C60C3
:1015500070BD012070BD00008800002094000020B4
:101560000C4808B5816941F001018161816901F090
:1015700001010091C16941F08051C161C06900F071
:10158000805000900448416821F0E06141F0007112
:10159000416008BD001002400000014000F01F0241
:1015A000012191404009800000F1E020C0F80011C5
:1015B00070470000F0B40E4B1B680C46C3F30223C7
:1015C000C3F10705042D00D90425191D072901D2EF
:1015D000002300E0DB1E012606FA05F1491E21402A
:1015E00099409E40761E16403143F0BC01F0BCBECF
:1015F0000CED00E0064900F0070208684FF6FF0313
:10160000184040EA0220034A104308607047000077
:101610000CED00E00000FA052DE9F047DFF85481F9
:1016200005460E46D8F8000000F00700B0420CD284
:10163000D8F8001021F007013143C8F80010D8F89D
:10164000000000F00700B0426FD128684A4C8107C3
:1016500012D5400703D5606840F4E06060602878E8
:10166000000703D5606840F4605060606068A96856
:1016700020F0F000084360602878C00744D0686814
:10168000012816D02168022816D0890700294CDAD3
:10169000616821F0030101436160FFF779FA69682D
:1016A000074641F2883001290ED00229814618D020
:1016B00026E021688903E9E78901E7E7FFF768FA8F
:1016C000C11B494501D918E081466068C0F381001B
:1016D0000128F3D118E000BFFFF75AFAC11B4945B2
:1016E0000BD86068C0F381000228F5D10CE000BF80
:1016F000FFF74EFAC11B494502D90320BDE8F08728
:10170000606810F00C0FF3D1D8F80010404601F0DB
:101710000701B1420BD9016821F007013143016093
:10172000006800F00700B04201D00120E6E7287809
:10173000400705D56068E96820F4E0600843606010
:101740002878000706D56068296920F4605040EACF
:10175000C100606000F036F86168084AC1F3031107
:10176000515CC840064908600020FFF7D9FE002000
:10177000C4E7000000200240001002406843000857
:10178000940000200448054900684968044AC1F3F0
:101790000221515CC84070479400002000100240B4
:1017A000784300080448054900684968044AC1F3C1
:1017B000C221515CC84070479400002000100240D4
:1017C0007843000812A185B00FC98DE80F0014A05E
:1017D000144A006804905168134801F00C03042B6C
:1017E00010D0082B0ED1C1F38343C9031DF80300A9
:1017F0000AD5516804AAC1F34041515C0A4A5043DA
:10180000B0FBF1F005B0704708494843FAE7000023
:1018100002030405060708090A0B0C0D0E0F101031
:10182000010200000010024000127A0000093D0091
:101830002DE9F84F04460078B94DC00748D06868D4
:10184000C0F38100012807D06868C0F38100022836
:1018500009D16868C00306D52868800338D5606858
:1018600000286FD034E06068B0F5803F0BD010B135
:10187000B0F5A02F11D0286820F4803028602868A7
:1018800020F4802002E0286840F4803028606068FE
:1018900088B1FFF77DF9064609E0286840F480200A
:1018A0002860F0E7FFF774F9801B642875D8286872
:1018B0008003F7D50CE0FFF76BF9064605E000BFA3
:1018C000FFF766F9801B6428F0D828688003F7D4F6
:1018D0002078944E80074FF001094FF000083BD567
:1018E000686810F00C0F07D06868C0F38100022808
:1018F00009D16868C00306D42868800714D5206918
:1019000001281FD110E02069B0B1C6F80090FFF7A0
:101910003FF9074605E000BFFFF73AF9C01B022870
:10192000C4D828688007F7D52868616920F0F800D6
:1019300040EAC10028600FE0C6F80080FFF728F9F0
:10194000074606E0E9E000BFFFF722F9C01B0228C6
:1019500023D828688007F7D4207800072CD5724850
:10196000A169D9B1C0F80090FFF712F9074604E069
:10197000FFF70EF9C01B02280FD8686A8007F7D559
:101980006A484FF4FA510068B0FBF1F0009000BFD4
:101990000098411E0091FAD20EE080E0C0F800806D
:1019A000FFF7F6F8074604E0FFF7F2F8C01B02283D
:1019B00075D8686A8007F7D42078400760D5E86951
:1019C0000027C00008D4E86940F08050E861E86969
:1019D000012700F08050009055480168C90513D4D4
:1019E0000168834641F480710160FFF7D1F88246B7
:1019F00006E000BFFFF7CCF8A0EB0A0064284ED841
:101A0000DBF80000C005F5D5E06801280AD008B170
:101A1000052813D0286A20F001002862286A20F0E7
:101A2000040002E0286A40F001002862E06841F208
:101A3000883B98B1FFF7ACF882460BE0286A40F08B
:101A400004002862EEE700BFFFF7A2F8A0EB0A014E
:101A500059455AD8286A8007F6D50CE0FFF798F860
:101A6000824605E0FFF794F8A0EB0A0159454CD8EF
:101A7000286A8007F6D41FB1E86920F08050E86139
:101A8000E06988B36968C1F38101022945D0022861
:101A9000C6F8608004D0FFF77BF8044638E034E0F5
:101AA000FFF776F8074604E0FFF772F8C01B02283C
:101AB0002BD828688001F7D4206AB0F5803F05D183
:101AC0006868A16820F4003008436860D4E9080120
:101AD0000843696821F4741108436860C6F860908F
:101AE000FFF756F8044606E015E000BFFFF750F890
:101AF000001B022809D828688001F7D50BE000BF39
:101B0000FFF746F8001B022802D90320BDE8F88F32
:101B100028688001F4D40020F8E70120F6E70000EF
:101B20000010024000004242800442429400002023
:101B30000070004010B5401EB0F1807F01D301203D
:101B400010BD4FF0E02460610F21601701F00CFC24
:101B50000020A06107202061002010BD7047704761
:101B600010B590F83C20012A25D0012280F83C20B5
:101B7000CA688C6822F4407222434C6822F4806266
:101B800022430C6822F4006222430C6922F4805242
:101B900022434C6922F4005222438C6922F4804291
:101BA000224322F40041026800232143516480F85B
:101BB0003C30002010BD022010BD30B590F83C2014
:101BC000012A20D0012280F83C20022380F83D30F9
:101BD00003685C6824F070045C6003685C680D68EE
:101BE0002C435C6003689C6824F080049C6003685C
:101BF0009C6849680C439C6080F83D20002180F877
:101C00003C10084630BD022030BD10B5040003D0A2
:101C100094F83D0010B107E0012010BD002084F8C9
:101C20003C00204600F00CF8022084F83D00211D05
:101C3000206801F011FE012084F83D00002010BD55
:101C400008B5114A01681148914208D1816941F4EF
:101C500000618161806900F40060009008BD0C4A59
:101C60009142FBD1C16941F00401C161C069002208
:101C700000F00400009011461E20FFF79BFCBDE819
:101C800008401E20FFF78ABC002C014000100240D3
:101C9000000800400168CA6842F00102CA6000689A
:101CA000016841F0010101600020704770B50446F1
:101CB00090F83C00012817D0012584F83C50022000
:101CC00084F83D002068826822F0770222F47F4287
:101CD00082600868502837D00DDC202859D005DCF8
:101CE00088B3102841D151E0022070BD302853D074
:101CF00040283AD13FE060282ED070280BD0B0F5B4
:101D0000805F03D0B0F5005F2FD110E020688168BC
:101D100021F0070115E0CB68D1E90121206801F02D
:101D2000DCFD2168886840F0770088601DE0CB68A2
:101D3000D1E90121206801F0D0FD2068816841F4DB
:101D40008041816011E01EE0CA684968206801F0A6
:101D500079FE5021206806E0CA684968206801F0D1
:101D600082FE6021206801F0C2FD84F83D50002011
:101D700084F83C0070BDCA684968206801F062FEC2
:101D800040212068EFE700212068ECE7102120685F
:101D9000E9E720212068E6E730212068E3E72DE924
:101DA000F0410D46040003D094F83D0018B108E05E
:101DB0000120BDE8F081002084F83C00204600F0BE
:101DC00039F8022084F83D002068816821F007017D
:101DD0008160211D206801F03FFD226890689169B3
:101DE000166A2B68AF69034340F20330814341EA2E
:101DF0000721A868EF6908434FF6FC418843E9686A
:101E000040EA0720014328692F6A000140EA0730B1
:101E1000084369686D6926F0AA0646EA0515294354
:101E200093602268906120680162012084F83D007F
:101E30000020BEE730B585B00025009501950295DC
:101E400003950268304901243048B2F1804F23D015
:101E50002F4B9A421ED1CA6942F00202CA61CA6976
:101E600002F0020204928A6942F004028A618969DE
:101E7000029401F004010491C02100916946FEF72B
:101E8000A3FD002211461D20FFF794FB5FF01D000B
:101E9000FFF784FB05B030BDCA6942F00102CA6198
:101EA000CA6902F0010204928A6942F004028A615E
:101EB0008A6902F0040204928A6942F008028A6187
:101EC0008969029401F0080104914FF400410091E6
:101ED0006946FEF779FD0820CDE9000569460294C0
:101EE0000C48FEF771FD0C48416821F4407141F047
:101EF000E06141F480714160002211461C20FFF72F
:101F000059FB1C20C4E700000010024000080140FB
:101F100000040040000C014000000140704770B513
:101F20000446006801694FF00005C943890715D4CC
:101F3000C168C943890711D4E91E016101202077D6
:101F4000206880698007204602D0FFF7E7FF04E0A1
:101F500000F0BEF8204600F040F9257720680169BE
:101F6000C943490717D4C168C943490713D46FF05F
:101F700004010161022020772068806910F4407F0D
:101F8000204602D0FFF7CAFF04E000F0A1F8204687
:101F900000F023F9257720680169C943090716D4A1
:101FA000C168C943090712D46FF008010161042018
:101FB00020772068C0698007204602D0FFF7AEFF77
:101FC00004E000F085F8204600F007F92577206846
:101FD0000169C943C90617D4C168C943C90613D4E6
:101FE0006FF010010161082020772068C06910F4AB
:101FF000407F204602D0FFF791FF04E000F068F830
:10200000204600F0EAF8257720680169C943C9072E
:1020100008D1C168C943C90704D1891E016120469E
:1020200000F0F4F820680169C943090609D4C168C1
:10203000C943090605D46FF0800101612046FFF70E
:102040008DFD20680169C943490609D4C168C943A7
:10205000490605D46FF040010161204600F0E2F925
:1020600020680169C94389060BD4C168C943890640
:1020700007D46FF0200101612046BDE87040FFF7F2
:102080006EBD70BD00B585B0002100910191029137
:10209000039100680B49884212D10B48816941F0D5
:1020A000040181618069694600F0040004904FF4E6
:1020B000407000900220019003900448FEF784FCD9
:1020C00005B000BD002C0140001002400008014096
:1020D000704770B5044690F83C000D4601280DD0BD
:1020E000012684F83C60022084F83D0042B1042AB5
:1020F00018D0082A2AD00C2A4DD139E0022070BD10
:10210000206801F0FDFB2068816941F008018161D0
:102110002068816921F004018161206881692A6950
:10212000114311E0206801F013FC2068816941F43B
:10213000006181612068816921F48061816120688A
:1021400081692A6941EA0221816124E0206801F065
:102150002BFC2068C16941F00801C1612068C16998
:1021600021F00401C1612068C1692A69114311E0AD
:10217000206801F045FC2068C16941F40061C1613B
:102180002068C16921F48061C1612068C1692A6940
:1021900041EA0221C16184F83D60002084F83C00DE
:1021A00070BD10B5040003D094F83D0010B107E0F5
:1021B000012010BD002084F83C00204600F00CF8FF
:1021C000022084F83D00211D206801F045FB01201C
:1021D00084F83D00002010BD7047704710B50446DC
:1021E0000068012201F06EFB07492068884203D194
:1021F000416C41F4004141642068016841F00101F3
:102200000160002010BD0000002C01402DE9F84FB6
:102210000068774988427DD100207649034602460E
:102220000090A1F5CA7001F080F97249A1F5CA7059
:1022300001F0CCF96F48B0F91210B0F91460B0F9A0
:102240001690B0F90C80B0F90E50B0F91070084635
:10225000FEF7FDF9684CA169FDF7D8FFDFF89CA1F6
:102260005146FEF70BF860623046FEF7F0F9E1697F
:10227000FDF7CCFF5146FEF701F8A0624846FEF795
:10228000E6F9216AFDF7C2FF5146FDF7F7FFE0626C
:102290004046FEF7DCF9E168FDF7B8FF6FF00D0688
:1022A0003146FEF729F820602846FEF7D0F921696B
:1022B000FDF7ACFF3146FEF71FF805466060384673
:1022C000FEF7C5F96169FDF7A1FF3146FEF714F885
:1022D000A060FEF7D9F906460F462846FEF7D4F966
:1022E00032463B4601F0C0FE454F464B3A46FEF7AC
:1022F000B6F8FEF7DCF9E067A068FEF7C5F902461C
:102300000B46FEF7ACF805460E466068FEF7BCF9D2
:102310000B4600E06AE00246FEF7A1F82A46334683
:10232000FDF7F6FF01F0FAFF05460E462068FEF7BE
:10233000ABF92A46334601F097FE3A46324BFEF798
:102340008EF8FEF7B4F98246A067E06FFEF79CF9BD
:102350002E4A2F4BFEF783F880460E46606AFEF742
:1023600093F9DFF8B4B02B4A5B46FEF778F80546E0
:102370000F46206BFEF788F92A463B46FDF7C8FF5B
:10238000264A274BFEF76BF842463346FDF7C0FF5F
:10239000FEF78DF9814620635046FEF775F91B4A1A
:1023A0001B4BFEF75CF806468846A06AFEF76CF900
:1023B000184A5B46FEF753F807460D46606BFEF77A
:1023C00063F93A462B46FDF7A3FF144A144BFEF778
:1023D00046F832464346FDF79BFFFEF768F9606317
:1023E0004946A06CBDE8F84F00F0CEBFBDE8F88FBD
:1023F00000080040300200200000002000000343DD
:1024000072235D1ADCA54C40DCA54CC0FA7E6ABC88
:102410007493883F7B14AE47E17A843F04560E2DB7
:10242000B29DEF3F7047704770B502680446106870
:10243000D168536910F00F0F50D003F0010501F47B
:10244000907635435DD0C20705D0CA0503D5E26B4F
:1024500042F00102E263420705D5DA0703D0E26BDE
:1024600042F00202E263820705D5DA0703D0E26B8D
:1024700042F00402E263020705D5DA0703D0E26BFB
:1024800042F00802E263E26B002A33D0800604D5F2
:10249000880602D5204601F00EFB20684069E16BFA
:1024A000C0F38010090700D428B3204601F0F5FAE4
:1024B0002068416949061AD5416921F0400141610E
:1024C000606BA0B11B494163606BFEF731FA0028D5
:1024D00010D0606B416BBDE870400847830610D593
:1024E0008B060ED52046BDE8704001F0E4BA2046C8
:1024F000FFF799FF70BD2046FFF795FF0020E063CE
:1025000070BD030606D50B0604D52046BDE8704015
:1025100001F0D4BB4006F3D54806F1D5D16820467A
:1025200021F04001D160202184F8391000F077F8C3
:1025300070BD00008B3A000870B5040004D094F818
:102540003900002510B106E0012070BD84F8385034
:10255000204600F023F8242084F839002068C16860
:1025600021F40051C160204601F0F0FA20680169B1
:1025700021F4904101612068416921F02A01416103
:102580002068C16841F40051C160E563202084F8EF
:10259000390084F83A00002070BD000030B585B0E5
:1025A000002400940194029403940068184988421E
:1025B0002CD11848C16941F48021C161C16901F47D
:1025C00080210491816941F0080181618069124D87
:1025D00000F0080004904FF4806000900220019009
:1025E0000320039069462846FEF7EEF9E814CDE98A
:1025F0000004694628460294FEF7E6F900221146D7
:102600002720FEF7D7FF2720FEF7C8FF05B030BD13
:102610000048004000100240000C01407047704725
:10262000FEE700000148FEF7BBBA00009C00002056
:102630000148FEF71DBB00009C00002010B5406A59
:1026400001680A6822F480620A6000214185426BB9
:102650005163826B516390F83D302022602B80F8EB
:102660003D2080F83E1007D001680A6822F0010280
:102670000A60FEF7F5FB10BD016401680A6822F0EC
:1026800001020A60FEF78AFA10BD000070B590F8EA
:102690003D10044600252026006829292DD02A292E
:1026A0002BD094F83D10602904D04168090501D46D
:1026B00084F83D60256384F83E50016821F4006190
:1026C000016020684168090537D5416821F400613F
:1026D0004160606B344990F82120012A12D0416397
:1026E000606BFEF725F938B32068016821F001011D
:1026F000016084F83D60606B1CE02563282184F84C
:102700003D10DAE7A06B4163A06BFEF711F998B1B9
:1027100020684169C943490604D40169606A421CC2
:10272000626201702068016821F00101016084F893
:102730003D60A06B416B88470FE094F83D10602925
:102740001DD04169C943490604D40169606A421C2D
:10275000626201702046FEF783FB94F83D00282852
:102760000CD1206C400709D51048E062256384F83D
:102770003D6084F83E502046FEF7C4FC70BD84F8EE
:102780003D6025644169C943490604D40169606A12
:10279000421C626201702068016821F00101016041
:1027A0002046FEF7FBF9D8E73D2600080000FFFFB2
:1027B00001684A69D24352050CD46FF480624A61C1
:1027C00004210164002140F8301F2022427301736C
:1027D000012070470020704710B5C26A448D2F4B0E
:1027E0000168032C03D0448D022C15D00AE0042A82
:1027F00003D0082A01D09A4203D10A6822F48062E9
:102800000A6001680A69416A4B1C43620A70418D83
:10281000491E4185002010BD042A12D0082A10D07C
:102820009A420ED0022A0A6802D022F4806201E0A5
:1028300042F480620A6001684A6822F440724A6089
:1028400008E04A6822F440724A6001680A6842F46B
:1028500000720A6001680A69416A4B1C43620A708F
:10286000418D491E418501680A69416A4B1C4362DA
:102870000A70418D491E4185202180F83D100021BC
:10288000016390F83E2080F83E10402A02D0FEF707
:102890003AFCBFE7FEF7DEFDBCE700000000FFFFEB
:1028A00010B590F83D1022294CD1418D032909D94A
:1028B00001680A69416A4B1C43620A70418D491ED6
:1028C00041853FE0022909D0032907D0C16A0229C6
:1028D00001680A6818D022F4806217E0C16A0229F0
:1028E00001680A6807D022F480620A6001680A68F9
:1028F00042F4006201E042F480620A6000684168CC
:1029000021F4806141601DE042F480620A60016848
:102910004A6822F4E0624A6001680A69416A4B1C15
:1029200043620A70418D491E4185202180F83D1087
:102930000021016390F83E2080F83E10402A03D029
:10294000FEF7E1FB002010BDFEF784FDFAE72DE95C
:10295000F84F0446C06A1E4692460D4621680A6832
:1029600042F480620A60042807D0012805D010F5DF
:10297000803F02D0206B112804D12068016841F407
:10298000807101604FF001185346002241462046F5
:10299000009600F0EAFAB8BB206908F10109B0F529
:1029A000804F12D00620216800EAD51747F0F000CA
:1029B00008613346524608F10701204600F006FB45
:1029C00038B1206C04282FD01EE0E8B240F001009E
:1029D0001FE02168E8B20861334652464946204666
:1029E00000F0F4FA0028ECD1206841698169009177
:1029F000016841F48071016053460022414620463F
:102A0000009600F0B2FA10B10320BDE8F88F47F04D
:102A1000F10021680861334652464946204600F0DD
:102A2000D5FA0028CDD1F0E70120EEE7F8B504464D
:102A3000C06A1E460D461746042807D0012805D057
:102A400010F5803F02D0206B122804D12068016865
:102A500041F480710160134600224FF001112046BD
:102A6000009600F082FAA0B92069B0F5804F12D02C
:102A70000620216800EAD51040F0F00008613346D6
:102A80003A460E49204600F0A1FA38B1206C0428DD
:102A900011D00320F8BD05F0FE0000E0E8B2216887
:102AA0000861064933463A46891F204600F08EFAEF
:102AB0000028EBD1F8BD0120F8BD0000080001009E
:102AC00010B5C26A90F83D10212921D1418D49B13C
:102AD000416A4A1C4262026809781161418D491EAF
:102AE000418515E020230021042A13D0082A11D0A3
:102AF00012F5803F0ED00268546824F4E0645460FC
:102B00001122026380F83E1080F83D30FEF7FCFA97
:102B1000002010BD0268546824F4E0645460026828
:102B2000146844F400741460016380F83D3090F838
:102B30003E2080F83E10402AE8D1FEF78CFCE7E703
:102B400010B590F83D1090F83E30C26A048D24B163
:102B5000212934D0402B30D074E02129FAD1202310
:102B60000021042A13D0082A11D012F5803F0ED07C
:102B70000268546824F4E06454601122026380F80F
:102B80003E1080F83D3000BFFEF7BEFA5AE0026802
:102B9000546824F4E06454600268146844F40074D7
:102BA0001460016380F83D3090F83E2080F83E10BC
:102BB000402AE9D1FEF74FFC44E0222942D1418D61
:102BC00021B190F83E10402906D032E000684168FB
:102BD00021F48061416035E0016D31B1016D012961
:102BE00011D0016D022915D02CE0C16C0129816C36
:102BF00002D0C1F3072108E00268C9B21161016D7A
:102C0000891C01651EE0816CC9B202681161016D09
:102C1000491CF6E790F83D10222904D090F83D10A9
:102C2000212906D00EE00068016841F4807101603E
:102C300008E0416A4A1C4262026809781161418DCC
:102C4000491E4185002010BD78B590F83E50C26AFB
:102C5000046B90F83D6000230168222E06D1066DBA
:102C60000EB9402D02D0056D25B107E0486988698D
:102C700000901CE00569B5F5404F1AD0458D85B32D
:102C8000458D012D20D0428D022A4AD00A6842F497
:102C900080620A6001684A68120503D54A6842F4F6
:102CA00080524A6001684A69896900910365002081
:102CB00078BD4A698A6900920A6842F480720A60A3
:102CC000016D491C0165F2E712F5803F0AD0042A24
:102CD00021D0082A1FD0122C1DD0C26A022A09D185
:102CE00014E00BE00A6822F480620A6001684A6816
:102CF000120503D50A6822F480620AE04A698A69EB
:102D000000920A6842F400720A60CFE70A6842F44F
:102D100080620A60C6E70A6822F480620A6001687D
:102D2000ECE7C26A022A0A680BD042F400620A6029
:102D300001684A698A6900920A6822F480620A601E
:102D400006E042F480620A6001684A69896900917C
:102D500001684A681205A9D54A6842F480524A605F
:102D6000A4E790F83E10402909D00169B1F5804FE1
:102D700010D0016D99B1016D012915D01CE0016DD4
:102D800019B9416C01F0FE0114E0416CC9B241F087
:102D900001010FE090F83D102129F6D1F1E7416CD7
:102DA000F02201F4407103E0416CF12201F4407122
:102DB00042EAD11100680161002070472DE9F0411D
:102DC00090F83D40C26A00231C4F202601686FF432
:102DD0008065042A01D0082A01D1282C05D0212C95
:102DE00017D04D610020BDE8F081C7624A6822F427
:102DF000E0624A6001684D6101680A6822F48062FD
:102E00000A60036380F83D6080F83E30FEF77AF98F
:102E1000E8E7C7622122026380F83D6080F83E3017
:102E20004A6822F4E0624A6001684D6101680A68FC
:102E300022F480620A60FEF758FBD3E70000FFFF30
:102E400038B590F83D2001684B6823F4E0634B608F
:102E5000036800215C6900941C6844F001041C6054
:102E600003681C6824F480641C6003685C682405A3
:102E70000BD590F83D40222C2BD090F83D402A2CC9
:102E800027D0446B246864684485448DE4B15C6950
:102E9000E443640707D41C69436A5D1C45621C70E7
:102EA000438D5B1E438503685C69E443640607D475
:102EB0001C69436A5D1C45621C70438D5B1E438523
:102EC000036C43F004030364036C23B1FFF7DEFBE0
:102ED0001FE0846BD6E72023282A09D02A2A07D0AE
:102EE000292A05D0046B222C0CD0222A0AD010E00B
:102EF000094AC262016380F83D3080F83E10FEF757
:102F000001F906E0016380F83D3080F83E10FEF7DD
:102F1000EBFA002038BD00000000FFFF70B5164638
:102F20000D4604461AE02046FFF742FC08B1012096
:102F300070BD681C12D025B1FDF72AFE801BA84287
:102F40000CD954F8400F40F0200044F8100900203C
:102F50002060202161732073032070BD20684069C8
:102F6000C0434007DFD4002070BD2DE9F0471E4666
:102F700090460D460446C1F30747DDF8209012E065
:102F8000701C10D02EB1FDF703FEA0EB0900B0427B
:102F900009D9002044F8300F20216173A0732073F9
:102FA0000320BDE8F0872068012F0AD0806925EA58
:102FB00000000004000C06D000214145E0D00020B4
:102FC000EFE74069F3E70121F7E700002DE9F0475B
:102FD0009A4691460D46044600264FF02008C1F35C
:102FE00007472AE020684069C043400512D42068A2
:102FF000016841F40071016021686FF480604861EC
:1030000004202064266384F83D8084F83C6001201D
:10301000BDE8F087B9F1FF3F0FD0B9F1000F05D03F
:10302000FDF7B6FDA0EB0A01494506D944F8306F1B
:1030300084F80D8026730320EAE72068012F07D06B
:10304000D0F8180025EA00000004000CE0D0C9E721
:103050004069F7E72DE9F041002590460E46044609
:10306000202721E04069C043C0060CD421686FF0DE
:10307000100048612564256384F83D7084F83C5055
:103080000120BDE8F0812EB1FDF782FDA0EB080024
:10309000B04209D954F8400F40F0200044F8040928
:1030A000677025700320ECE720684169C943490631
:1030B000D8D40020E5E770B516460D4604461AE060
:1030C0002046FFF775FB08B1012070BD681C12D0C7
:1030D00025B1FDF75DFD801BA8420CD954F8400FC7
:1030E00040F0200044F81009002020602021617386
:1030F0002073032070BD20684069C0430006DFD400
:10310000002070BD2DE9F04186B0002424480094D1
:10311000019402940394816941F0100181618169F5
:1031200001F010010491816941F020018161816900
:1031300001F020010491816941F0040181618169FC
:1031400001F004010491816941F008018161806905
:10315000144F00F008004FF4005504900022294657
:103160003846FDF70FFDDFF8408000221F21404662
:10317000FDF708FD0095022601250396CDE90154CF
:1031800069463846FDF720FC1F20CDE90005CDE952
:10319000024669464046FDF717FC06B0BDE8F081DF
:1031A00000100240001001400008014010B594B02A
:1031B00000240E940F941094119412941C216846CC
:1031C0001394FCF7C6FF1C2107A8FCF7C2FF214897
:1031D0001F49C0E90014FF21C0E9024104614461B4
:1031E0008461FEF712FD4FF480500E900EA919482D
:1031F000FEF75CFD1748FEF7D4FF129412A915489C
:103200001394FEF7DAFC6020CDE9000402940394E5
:1032100004940594002269460E480694FEF759FF6F
:10322000042269460B48FEF754FF0794089409945A
:103230004FF400500A94CDE90B4007A905480D94BE
:10324000FEF78EFC0348FEF71DFF14B010BD000012
:10325000002C0140F000002010B58CB024216846FD
:10326000FCF777FF0024124809944FF080410A943C
:10327000C0E900144FF6FF71C0E9024104618461A6
:103280000320CDE900040120CDE902040494CDE936
:1032900005400794694606480894FEF780FD0994A6
:1032A00009A903480A94FEF788FC0CB010BD000081
:1032B0003001002010B58CB024216846FCF749FF8E
:1032C00000241248099410490A94C0E900144FF6EA
:1032D000FF71C0E90241046184610320CDE900046B
:1032E0000120CDE902040494CDE905400794694624
:1032F00006480894FEF753FD099409A903480A9467
:10330000FEF75BFC0CB010BD000400407001002013
:1033100010B586B0002412480094019402940394DE
:1033200004940E490594016041F63F71C0E901140F
:103330000A21C0E903148461FEF767FC4FF4805052
:10334000009069460648FEF7B1FC049404A90448BD
:103350000594FEF732FC06B010BD000000080040E6
:10336000B0010020FEE770470907090E002806DAC1
:1033700000F00F0000F1E02080F8141D704700F10C
:10338000E02080F8001470472DE9F84F5E4C5F4A4A
:10339000206B90427ED25E4A90427BDA9002FCF72C
:1033A00035FFA065E16D80460091FCF72FFFA16B12
:1033B000FCF732FFE064814640460099FCF7D4FEFA
:1033C000FDF762F905460E46E06BFDF75DF94FF03B
:1033D000FF32FDF725F9DFF83CA1DFF83CB152469A
:1033E0005B46FDF73CF82A463346FDF738F8FDF713
:1033F0005EF90746206501210098FCF77DFF4146F4
:10340000FCF707FF216EFCF7AFFEFDF73DF905461F
:103410000E46206CFDF738F952465B46FDF791F8F1
:103420002A463346FDF71BF8FDF741F9054660656E
:103430004946A06EFCF798FE3946FCF795FE2946F2
:10344000FCF792FE6066616CFDF74EF9606C0AD382
:1034500080F00040616EFDF747F901D3606E03E034
:10346000606C80F0004060662C4D10F0FF4F04D17E
:103470002A68002151632A689163234E4FF07E57DA
:103480008036B0F5000F13DB3946002000F0F4FE63
:10349000394600E029E0084600F0EEFE606E204963
:1034A0006067884200DD6167606F3060706015E0C2
:1034B00010F1FF4F1ED30021084600F0DDFE002171
:1034C000384600F0D9FE606E16496067884200D920
:1034D0006167606F3060706080F00040FDF7C0F899
:1034E000296848632968886304E000214FF0804020
:1034F00000F0C2FEE06D2066A06DE065606EA06623
:10350000E06E2067BDE8F88F000000200000F0C1E9
:103510000000F0417B14AE47E17A843FF0000020C8
:1035200000001943000019C370472DE9FF47064604
:103530007520DDF830908DF8080042F0D0059846EF
:103540000F460D700523022229463046FDF72AFD5D
:1035500040BB4FF47A74012302AA294630460094F6
:10356000FDF7DCFEF0B9012303AA2946304600949A
:10357000FDF7CCFDB0B903E0032004B0BDE8F0874F
:103580009DF80C006828F7D16B208DF8040000200E
:103590008DF80500022301AA294630460094FDF764
:1035A000BDFE08B10120E8E700223946304600F0B0
:1035B0009BF842463946304600F050F84A463946B4
:1035C000304600F0A5F80020D7E70000F0B587B03E
:1035D0000C463B218DF81410277806464FF47A7577
:1035E000012305AA394630460095FDF797FE0028CD
:1035F000F6D10E2301AA394630460095FDF786FD27
:103600000028F6D1BDF8040040BAA081BDF806003C
:1036100040BAE081BDF8080040BA2082BDF80A0037
:1036200040BA00B2FDF713F80A49FCF727FE0A4931
:10363000FCF79AFDA061BDF80C0040BA6082BDF8AD
:103640000E0040BAA082BDF8100040BAE08207B078
:103650000020F0BD0000AA43B81E12422DE9FE432F
:10366000074691F800801C2016460D468DF808008C
:103670004FF47A74012302AA414638460094FDF7BC
:103680004DFE0028F6D1012301AA41463846009498
:10369000FDF73CFD0028F6D19DF8040000F0E7009E
:1036A00040EAC6008DF80400012301AA41463846CD
:1036B0000094FDF733FE0028F6D136B1012E07D075
:1036C000022E0BD0032E06D10BE04FF0625001E02A
:1036D0004FF06450A8600020BDE8FE834FF06650B4
:1036E000F8E74FF06850F5E77CB504460D781920EF
:1036F0008DF804008DF805204FF47A76022301AA94
:10370000294620460096FDF709FE0028F6D17CBD2B
:103710002DE9FE43074691F800801B2016460D4612
:103720008DF808004FF47A74012302AA4146384606
:103730000094FDF7F3FD0028F6D1012301AA4146CC
:1037400038460094FDF7E2FC0028F6D19DF804000D
:1037500000F0E70040EAC6008DF80400012301AA4A
:10376000414638460094FDF7D9FD0028F6D136B120
:10377000012E06D0022E09D0032E04D108E0054800
:1037800000E0054868600020BDE8FE830348F9E7D3
:103790000348F7E72D23FA3B2D237A3C90C1F93CEF
:1037A00090C1793D7047FDF7A1BE30B58FB028219B
:1037B0006846FCF7CEFC14210AA8FCF7CAFC0125D8
:1037C0002804CDE90050002407946846FEF730F83D
:1037D0000F20CDE90A05A802CDE90C4000210AA876
:1037E0000E94FDF719FF0FB030BD00000D480168C1
:1037F00041F00101016041680B4A114041600168DC
:103800000A4A11400160016821F480210160416889
:1038100021F4FE0141604FF41F0181600449C0039F
:1038200008607047001002400000FFF8FFFFF6FE3E
:1038300008ED00E00148FEF772BB000030010020F7
:103840000148FEF76CBB0000700100200148FEF744
:1038500066BB0000B0010020F0B50268164B174CA3
:10386000174D4FF08047984205D0B84203D0A04290
:1038700001D0A84203D122F070064A683243984230
:1038800005D0B84203D0A04201D0A84203D122F40F
:103890004074CA68224322F080044A6922430260CD
:1038A0008A68C2620A688262984201D1096901632A
:1038B00001214161F0BD0000002C014000040040E6
:1038C0000008004010B50123046A8B409C43046249
:1038D000036A8A401343036210BD10B5846842EA4C
:1038E000032224F47F440A432243826010BD82688D
:1038F00022F070020A4342F0070181607047000025
:1039000030B5026A22F001020262026A43688469E9
:1039100024F073050C682C4322F002058A682A43C0
:103920000A4DA8420BD122F00805CA6823F440735F
:103930002A434D6922F004021D438B692B434360E7
:10394000846149684163026230BD0000002C01407F
:1039500030B5026A22F010020262026A436884698A
:103960000D6824F4E64444EA05248D6822F0200220
:1039700042EA05120B4DA8420ED1CD6822F080021A
:1039800042EA05124D6923F4406343EA85038D69D9
:1039900022F0400243EA8503436084614968816301
:1039A000026230BD002C014030B5026A22F4807200
:1039B0000262036A4268C46923F4007324F0730549
:1039C0000C682C438D6843EA05230C4DA8420ED1A8
:1039D000CD6823F4006343EA05234D6922F4405285
:1039E00042EA05128D6923F4806342EA05124260BF
:1039F000C4614968C163036230BD0000002C01400E
:103A000030B5026A22F480520262046A4268C369D5
:103A10000D6823F4E64343EA05238D6824F400543B
:103A200044EA0534064DA84204D14D6922F480428F
:103A300042EA85124260C36149680164046230BD94
:103A4000002C014010B5036A046A24F001040462EA
:103A5000846924F0F00444EA021423F00A020A43C1
:103A60008461026210BD10B5036A23F01003036283
:103A70008369046A23F4704343EA023224F0A0030A
:103A800043EA01118261016210BD10B5406A002154
:103A9000C185C184FEF7C7FC10BD0168CA6822F465
:103AA0009072CA6001684A6922F001024A612021CD
:103AB00080F83A10704710B590F83A10222901D0DA
:103AC000022010BD8168B1F5805F11D00169002925
:103AD00001681FD0496801F07F03816A4A1C826235
:103AE0000B70C18D491E0904090CC18518D02BE04B
:103AF0000269816A002A0268526805D0D2B20A803F
:103B0000816A491C8162ECE7C2F308020A80816A7B
:103B1000891CF7E74A68816A4B1C83620A70E0E7F8
:103B20000168CA6822F02002CA600168CA6822F4EB
:103B30008072CA6001684A6922F001024A6120214C
:103B400080F83A10FEF76AFD002010BD2DE9F04123
:103B5000044600680169E26821F4405111430161A3
:103B60002169A0680843616908432168CA6841F275
:103B70000C639A430243CA6020684169A26921F438
:103B80004071114341614C492068642532268842C6
:103B90003CD1FDF707FE00EBC00101EB00106168AE
:103BA0008900B0FBF1F7FDF7FDFD00EBC00101EB73
:103BB00000106168B0468900B0FBF1F0B0FBF5F091
:103BC0006FF01801484307EB800106EB0110B0FBD2
:103BD000F5F000F0F006FDF7E5FD00EBC00101EBAC
:103BE000001061688900B0FBF1F0B0FBF5F006EB66
:103BF0000016FDF7D7FD00EBC00101EB0010616876
:103C00008900B0FBF1F7FDF7CDFD3BE0FDF7BAFD14
:103C100000EBC00101EB001061688900B0FBF1F717
:103C2000FDF7B0FD00EBC00101EB00106168B0468C
:103C30008900B0FBF1F0B0FBF5F06FF018014843DC
:103C400007EB800106EB0110B0FBF5F000F0F00689
:103C5000FDF798FD00EBC00101EB001061688900E1
:103C6000B0FBF1F0B0FBF5F006EB0016FDF78AFDB6
:103C700000EBC00101EB001061688900B0FBF1F7B7
:103C8000FDF780FD00EBC00101EB001061688900C9
:103C9000B0FBF1F0B0FBF5F06FF01801484307EB13
:103CA000800108EB0110B0FBF5F0216800F00F0077
:103CB00030448860BDE8F0810038014090F8391048
:103CC000212901D0022070478168B1F5805F016A27
:103CD0000BD04A1C0262026809785160C18C491EEF
:103CE0000904090CC1840ED017E009880268C1F3E9
:103CF0000801516001690029016A02D0491C016272
:103D0000ECE7891CFBE70168CA6822F08002CA6000
:103D10000068C16841F04001C160002070470000A8
:103D20000148FEF781BB0000F0010020FEE74900DA
:103D300050EAC12018BF04204A0D18BF40F001000E
:103D400040F2FF72B2EB515F08BF40F00200012861
:103D500008BF052070472DE9F0414F1E00EBC70159
:103D60000446D1E9000115461E4637F006020DD083
:103D70002A463346FCF773FB7F1E04EBC703D3E9E7
:103D80000023FCF7C5FA37F00602F1D1022F25D047
:103D9000042F13D0062F18BFBDE8F0812A46334602
:103DA000FCF75DFBD4E90A23FCF7B2FA2A46334656
:103DB000FCF755FBD4E90823FCF7AAFA2A46334658
:103DC000FCF74DFBD4E90623FCF7A2FA2A4633465A
:103DD000FCF745FBD4E90423FCF79AFA2A4633465C
:103DE000FCF73DFBD4E90223FCF792FA2A4633465E
:103DF000FCF735FBD4E90023BDE8F041FCF788BAB5
:103E00000122FCF70DBCFCF783BA0000024A002037
:103E10001107FCF705BC000001FDFFFF02E008C828
:103E2000121F08C1002AFAD170477047002001E034
:103E300001C1121F002AFBD1704700000149086030
:103E400070470000980000202DE9F84F04460D4609
:103E500021F0004000917349814211DC724988428F
:103E600001DC06D12CB120462946BDE8F84FFFF70A
:103E7000C7BF6E48002DCCBF6D496E49BDE8F88FB5
:103E80006D49814211DD6D498142D8BF4FF0FF3647
:103E90006DDD20462946FFF74AFF042808BFFFF7DB
:103EA000B5FF20462946BDE8F88F6549654F25F0E6
:103EB0000045814233DD6449814219DD00263246E6
:103EC0004FF0804320462946FCF722FA80468A4676
:103ED000012220462946FCF7A3FB00223B46FCF7C3
:103EE000B8FA42465346FCF72CFB04460D463EE02A
:103EF00001260022BA463B4620462946FCF708FA2E
:103F000080460F460022534620462946FCF7A1FA78
:103F100042463B46FCF715FB04460D4627E04B495D
:103F200081421BDDDFF828A10226002253462046ED
:103F30002946FCF794FA00223B46FCF7E9F9804653
:103F40000F460022534620462946FCF782FA424695
:103F50003B46FCF7F6FA04460D4608E003262246E7
:103F60002B4600203B49FCF7ECFA04460D4622465E
:103F70002B4610461946FCF772FA8B4682460246DB
:103F80000B46FCF76CFA07460246334888460B4658
:103F900006217844FFF7DFFE52465B46FCF75FFAE6
:103FA00082462E488B463A46434605217844FFF721
:103FB000D2FE3A464346FCF752FA02460B46002E22
:103FC000504659460CDAFCF7A3F922462B46FCF77B
:103FD00046FA01B022462B46BDE8F04FFCF73CBA4A
:103FE000FCF796F922462B46FCF739FA1C4A7A442C
:103FF00002EBC603D3E90023FCF72BFA22462B463B
:10400000FCF727FA174A7A4402EBC603D3E90023E8
:10401000FCF722FA009A002AB8BF81F00041BDE8FF
:10402000F88F0000000010440000F07F182D445469
:10403000FB21F93FFB21F9BF0000DC3F0000203EDF
:104040000000F33F0000F03F0000E63F0080034027
:104050000000F83F0000F0BF520400001004000010
:10406000AE030000760300002DE9F04D9446CCF13C
:10407000000423F000464CEA0404524F46EAD4748C
:104080009A46884621F00042BC4206D8454240EAA2
:10409000050442EAD474BC4204D9BDE8F04D62463E
:1040A000FFF7B1BEAAF14055A5F17F6555EA0C04B2
:1040B0000BD0022404EAAA74434DDFF810E144EA6D
:1040C000D87452EA000B04D00CE0BDE8F04DFFF7C5
:1040D000BBBE002C14BF012CBDE8F08D022C30D0EB
:1040E000032C32D056EA0C0B0AD0BE4220D1BA4281
:1040F00009D126F0804622F080423346114617E06F
:1041000000291ADB25E0DFF8C8B0FB44002C04BF0F
:10411000DBE90001BDE8F08D012C02BFDBE9000105
:1041200081F00041BDE8F08D022C0AD0032C0CD0A8
:10413000BA4212D1B8F1000F0BDA23482549BDE885
:10414000F08D28462449BDE8F08D28467146BDE82B
:10415000F08D1D482149BDE8F08D921B12153C2AB7
:10416000C4BF19481D490EDCBAF1000FBEBF12F1E1
:104170003C0F0020014606DB6246FCF7E2F921F025
:104180000041FFF761FE002C08BFBDE8F08D012C57
:1041900004BF81F00041BDE8F08D114A114B022CA3
:1041A00007D0FCF756F92A46BDE8F04D0A4BFCF75C
:1041B00050B9FCF74EF92A46BDE8F04D064BFCF726
:1041C0004BB900000000F07F182D4454FB2109C0BA
:1041D0000A030000FB21F9BFFB210940FB21F93F45
:1041E000075C143326A6A13CFDF788F9FFF7DDFA3A
:1041F000FEF788FF1C481B49002401601B49C0E9E9
:1042000001144FF48041C0E9034144618461C461F9
:104210000462FCF727FEFFF77BF8FEF7C7FFFFF706
:104220001BF8FFF747F81348114901604FF4165186
:10423000C0E901140C21C460C0E904418461C46177
:10424000FEF77AF90B484038FDF724FD06480021B7
:104250005430FDF7C3FF044804215430FDF7BEFF7E
:10426000FEE70000005400409C000020A0860100F2
:1042700000480040F001002010B5264C10F0FF4F20
:1042800020D0B0F17E5F2FD0B0F1804F19D1002245
:1042900001212046FCF776FC002202212046FCF793
:1042A00071FC002210212046FCF76CFC0022082142
:1042B0002046FCF767FC184900200A68506309682B
:1042C000886310BD11F0FF4F07D001221146204630
:1042D000FCF758FC0022022110E0002201212046B8
:1042E000FCF750FC0122F6E711F0FF4F0BD0012242
:1042F00010212046FCF746FC002208212046BDE89C
:104300001040FCF73FBC002210212046FCF73AFC8D
:104310000122F2E700080140F00000202DE9F04101
:1043200006460F46FCF79FFA041E0D4618BF0120F3
:10433000284320F00040C0F17F6000F1E040C00F52
:104340000ED0301C18BF0120384320F00040C0F1CF
:104350007F6000F1E040C00F04BF0120FFF76EFD59
:1043600020462946BDE8F081000000000000000062
:10437000010203040607080900000000010203040B
:104380004FBB610567ACDD3F182D4454FB21E93F6D
:104390009BF681D20B73EF3F182D4454FB21F93F5C
:1043A000E2652F227F2B7A3C075C143326A6813CE2
:1043B000BDCBF07A8807703C075C143326A6913C8D
:1043C000C4EB98999999C9BF711623FEC671BCBFF9
:1043D0006D9A74AFF2B0B3BF9AFDDE522DDEADBF61
:1043E0002F6C6A2C44B4A2BF0D5555555555D53F79
:1043F000FF8300922449C23F6E204CC5CD45B73F94
:10440000513DD0A0660DB13FEB0D76244B7BA93F0B
:1044100011DA22E33AAD903F0000000000000000F6
:1044200040440008000000209C0000001C3E0008E2
:10443000DC4400089C000020B40500002C3E00086D
:10444000000000000000000000000000A8C6FA3CC8
:104450002B8722BB2759803F146EBC430000BA4211
:10446000AE47B9C2000000000000000000000000DC
:104470000000000000000000000008420000DC43D3
:10448000C74B973F00007F43000000C000000000C2
:10449000000000000000000000000000000000001C
:1044A000000000000000000000000000000000000C
:1044B00000000000000000000000000000000000FC
:1044C00000000000000000000100000010000000DB
:0C44D0000000000000A24A0400000000F0
:04000005080000ED02
:00000001FF
